:020000040800F2
:10300000000001203566000835310008373100081E
:10301000393100083B3100083D3100080000000054
:103020000000000000000000000000004131000826
:103030003F3100080000000043310008453100081E
:10304000493100084B3100084D3100084F3100086C
:10305000513100085331000855310008573100083C
:10306000593100085B3100085D31000800000000A4
:103070000000000000000000000000000000000050
:1030800000000000000000006D3100086F310008F2
:10309000713100087331000875310008773100087C
:1030A000793100087B3100087D3100087F3100084C
:1030B000813100088331000885310008873100081C
:1030C000893100088B3100088D3100088F310008EC
:1030D00091310008933100089731000899310008B8
:1030E0009D3100089F310008A1310008A33100087C
:1030F000A5310008A7310008A9310008AB3100084C
:10310000AD310008AF310008B1310008B33100081B
:10311000B5310008B7310008B9310008BB310008EB
:10312000BD310008BF310008C1310008C3310008BB
:043130005FF8000044
:103134007047FEE7FEE7FEE7FEE77047704770471B
:1031440001F016BD7047704770477047704770476D
:1031540070477047704770477047704770477047B3
:1031640070477047704770477047704770477047A3
:103174007047704770477047704770477047704793
:10318400704770477047704770477047704700F04A
:1031940083BB704701F044B870477047704770476D
:1031A4007047704770477047704770477047704763
:1031B4007047704770477047704770477047704753
:1031C400034B03EBC002918853F8300002F00BBCB0
:1031D4000000002010B5441E14F8011FF9B10A299B
:1031E4000F4813D10D2103F05EF90D48402103F07F
:1031F400B5F90028F9D00A480A2103F054F908481F
:10320400402103F0ABF90028F9D0E5E703F04BF9CE
:103214000348402103F0A2F90028F9D0DCE710BDEF
:10322400004800400A30FFF7D5BFA0F14103052B49
:1032340001D837387047A0F16101052901D8573802
:1032440070473038C2B2092A88BF4FF0FF30704748
:103254000C4B0422062008211A7058700C220D20F1
:103264009970DA7003210E22187105205A71997130
:10327400D87107210B209A72102219725872DA72CF
:10328400704700BFD4000020024B187059709A7028
:10329400704700BFD4000020024BD87019715A71D6
:1032A400704700BFD4000020024B9871D9711A7284
:1032B400704700BFD4000020024B58729972DA7232
:1032C400704700BFD40000207047704710B50F4C02
:1032D4002068A18802F085FBA068A18902F081FB27
:1032E4002069A18A02F07DFBA069A18B02F079FB21
:1032F400206AA18C02F075FBA06AA18D02F071FB1B
:10330400206BA18EBDE8104002F06BBB00000020D2
:1033140010B50F4C2068A18802F065FBA068A18954
:1033240002F061FB2069A18A02F05DFBA069A18B18
:1033340002F059FB206AA18C02F055FBA06AA18D12
:1033440002F051FB206BA18EBDE8104002F04BBB94
:103354000000002008B1FFF7DBBFFFF7B7BF7047DD
:103364000148002103F037B80038014009B1FFF7E4
:1033740027BF044A02EBC001898852F8300002F0EA
:1033840030BB00BF0000002008B5064B03EBC001B2
:10339400886B898F02F013FB10F1FF3018BF0120F6
:1033A40008BD00BF00000020064BC0001A18906E34
:1033B40019B1B2F86C1002F014BBB2F86C1002F040
:1033C40012BB00BF0000002008B50D4BDA681AB923
:1033D400197C4A1CD1B219740928094B04D90A2250
:1033E400B0FBF2F1D96001E00120D860187C01281B
:1033F40001D102F00DFF024BD8680028FBD108BDB3
:10340400D40000204FF47A735843FFF7DDBFFFF771
:10341400F9BF012810B5044601D004280FD10221B8
:103424002C4802F0DEFA04212A4802F0DCFA0520D6
:10343400FFF7CAFF012C1CD12748214612E00228BD
:1034440001D0052821D10221224802F0CCFA04211E
:10345400204802F0C6FA0520FFF7B6FF022C08D177
:103464001D48012101F098FE0520FFF7ADFF1A4821
:1034740007E01A48012101F08FFE0520FFF7A4FFA1
:103484001648BDE8104001F0FBBE062818BF4FF4F3
:1034940000441CD1012207230D210F4801F09AFE9C
:1034A4000520FFF791FF01210B4801F075FE05206F
:1034B400FFF78AFF084801F0E3FE0A2104460122CF
:1034C4000548072301F086FE0520FFF77DFF20460F
:1034D40010BD00BF0010014000240140002801403D
:1034E40010B5044608B1032820D11248022102F085
:1034F4007AFA1048042102F076FA0520FFF764FFF7
:1035040044B90D48012101F047FE0520FFF75CFF97
:10351400094807E00948012101F03EFE0520FFF7B4
:1035240053FF0648BDE8104001F0AABEBDE81040B4
:10353400FFF76FBF00100140002401400028014044
:1035440070B5114B4400E4B203EBC401651C06469C
:10355400EDB2886EB1F86C1002F043FA00212846EF
:10356400FFF722FF1920FFF72FFF3046FFF7B8FFC0
:10357400002106462046FFF717FF28460021FFF7E3
:1035840013FF304670BD00BF0000002010B50B4C87
:10359400627CA37C9A420FD14FF47A70FFF714FF38
:1035A400607C2118C87C627C531CD9B26174627C33
:1035B40002F01F03637410BD002010BDD40000206E
:1035C40038B5074C8125013D07D0FFF7DFFF0D28F3
:1035D40003D00A2801D02418F5E7204638BD00BFDF
:1035E400806D000838B505460023EA5C062A18D821
:1035F4000133042BF9D1FFF769FE0024285D094A41
:10360400013402EBC001898852F8300002F0EBF972
:10361400042CF3D10448FFF7D7FEBDE83840FFF788
:1036240055BE38BD00000020F049020008B5FFF780
:103634004DFEFFF76DFE0548FFF7C6FEFFF746FE99
:103644000348BDE80840FFF7BFBE00BF20A1070044
:1036540040420F00084B5A6B1AB9197C4A1CD1B26C
:10366400197464235843044A5063107C012801D11F
:1036740002F0CEBD704700BFD4000020084B9A6B07
:103684001AB9197C4A1CD1B2197464235843044AE8
:103694009063107C012801D102F0BABD704700BFCD
:1036A400D400002010B50C46FFF7E8FF094B986BD7
:1036B40070B14021084802F096F92046FFF784FED5
:1036C4000548402102F08DF92046FFF77DFEEDE725
:1036D40010BD00BFD40000200008014041FA02F1EF
:1036E400FFF7E0BF0B4BDA6B1AB9197C4A1CD1B255
:1036F40019740928074B04D90A22B0FBF2F1D963E3
:1037040001E00120D863187C012801D102F080BDBA
:10371400704700BFD40000200B4B1A6C1AB9197CF7
:103724004A1CD1B219740928074B04D90A22B0FBE8
:10373400F2F1196401E001201864187C012801D118
:1037440002F066BD704700BFD40000201FB50446D8
:10375400684602F01FFE0094124C0C200023ADF8C2
:103764000A002046ADF80430ADF80630ADF8083054
:10377400ADF80C3002F080FD42F21070FFF724FE29
:103784002046694602F0C2FD2046012240F225513E
:1037940002F02DFE2046012102F01DFE012004B09E
:1037A40010BD00BF003801400148002102F013BEE3
:1037B400003801400023074A0021D0180133B3F533
:1037C400807F80F84410F6D1A2F84411A2F8461183
:1037D400704700BFD400002070B506460D46002493
:1037E400E3B2AB421BD20F48202102F0FCF80D4893
:1037F400102102F0F6F80C48315D02F054FE0A483C
:10380400402102F0ABFE0028F9D00648102102F056
:10381400EAF80448202102F0E4F80134E0E72846FD
:1038240070BD00BF000C01400038014070B500229B
:103834000546D0B288421DD20F4BB3F84461B3F8A9
:103844004641B6B2A4B2A64215D0B3F8440184B23C
:103854001819013490F84400A4B2A3F84441A854C0
:10386400B3F8440180B2FF2802D90020A3F8440130
:103874000132DEE7084670BDD40000201E23584301
:10388400FFF730BF034BD86BD0F1010038BF0020E5
:10389400704700BFD400002008B51C4840F22551F1
:1038A40002F066FE80B3194802F001FE184BC0B264
:1038B400B3F8462191B2B3F84621FE2992B205D855
:1038C4009918013281F8440090B203E0991881F804
:1038D40044000020A3F84601B3F84411B3F846317C
:1038E4008AB299B28A420A4805D1B0F84421531CDD
:1038F40099B2A0F844110648B0F8442193B2FF2BC2
:1039040002D90021A0F8441108BD00BF00380140CD
:10391400D400002008B5084B013093FBF0F0FFF70A
:1039240015FF40B10549064B00200222A1F8C8202A
:1039340083F84801012008BD80841E000000002097
:10394400D4000020FFF730BF38B53B4B93F8482133
:10395400012A70D0394A0021012083F848010C461D
:10396400A2F8C81093F84C11982905D9B2F8C800E8
:1039740081B241F010010DE093F84D01451E052D73
:103984000DD983280BD00E2809D0B2F8C81088B2FC
:1039940040F02001A2F8C81083F8484138BD264CF5
:1039A400FF25002384F8495184F84A511A4691426C
:1039B400214807DB841894F84B5101325819C3B2DB
:1039C400D2B2F4E742181D49DB43B1F8C84082F88B
:1039D4004C3124F4657525F00300C204D30C0BB1FB
:1039E400FFF7E8FE144C164894F84C110D1DEDB287
:1039F4002946FFF7F1FE85420BD0104BB3F8C820DF
:103A040091B241F00400A3F8C800002384F84831BF
:103A140038BD94F84D01022806D194F84F21931D26
:103A2400D8B2FFF72BFF02E0B420FFF75BFE034898
:103A34000121A0F8C81038BDD400002000000020E7
:103A44001D02002070B55C4B93F84821002A00F059
:103A5400B28093F84B110120FE2983F84801574A9C
:103A640004D10221A2F8C8100022A2E0B2F8C84092
:103A7400E20705D50025062683F8E95183F8EA61B3
:103A84004D4D4F4895F8E94195F8EA610019331B0B
:103A9400D9B2FFF7CBFE0119CCB2B44285F8E941A3
:103AA4000FD2FFF7EFFE01280BD1444B14B94FF4AA
:103AB400806001E04FF40060A3F8C80000223E4B90
:103AC40077E00023621E934209DA3B48C11891F85B
:103AD400EB51FF2D06D191F8EC11FF2902D1E3B18E
:103AE40000250AE0A51EAB4204D1821892F8EB012E
:103AF400FF28F4D00133DBB2E4E7E21A95422E4901
:103B040009DACA18501990F8EB214919013581F8DE
:103B1400EB21EDB2F1E781F8E921274C94F8E95162
:103B2400B54221D394F84B0194F8ED31984207D073
:103B3400224B48200022A3F8C80084F8482170BD15
:103B440094F8EE61321DD6B2B54284F8EA6111D21E
:103B54001B48711B4019C9B2FFF768FE4519EDB245
:103B6400B54284F8E95105D214484FF40071A0F825
:103B7400C81070BD104B002293F8EE011146884224
:103B84000D4B07DB5B1893F8ED310131D218D2B23B
:103B9400C9B2F4E7181890F8EE11D243D2B29142A8
:103BA400064914BF41F2080002204FF00002A1F8B8
:103BB400C80083F8482170BDD40000200000002014
:103BC400BF020020024BB3F8C80080B2704700BFA8
:103BD40000000020014B83F84B017047D400002003
:103BE400014B83F84D017047D4000020024B181894
:103BF40080F84E11704700BFD4000020014B83F8B9
:103C04004C017047D4000020084BB3F8C81001F0F1
:103C1400080293B23BB9064991F8EF2110420CBF58
:103C24000020012070478020704700BF0000002062
:103C3400D4000020064BB3F8C80000F008018AB293
:103C44001AB9044B93F8EE0170470020704700BF87
:103C540000000020D4000020064BB3F8C81001F087
:103C6400080293B223B90449081890F8F001704788
:103C74000020704700000020D400002000EB012049
:103C840080B27047C0B27047000A7047104A92F879
:103C9400EE114B1E3A2B4FF000030CD982F8EB3196
:103CA40082F8EC3182F8ED3182F8EE3182F8EF31AE
:103CB40082F8F0317047C81C984207DB044A0020A0
:103CC400D218013382F8EB01DBB2F4E7704700BF8E
:103CD400D400002008B5FFF737FE0A4BB3F8C8003C
:103CE400C1070ED5FFF7D2FFFFF7ACFE3220FFF776
:103CF4006BFB0449B1F8C82002F4007398B20028A1
:103D0400F2D108BD00000020F8B504460E4617465F
:103D140000F06AF80D4B93F84851002DFAD10322B4
:103D2400042083F84B4183F84D2183F84E6183F8D6
:103D34004F7183F84C01FFF7CDFF2046294600F070
:103D440057F80349B1F8C83098B2F8BDD400002040
:103D54000000002010B5094CFE2094F831321821DF
:103D64000BB1002200E00122FFF7CEFF94F83102EC
:103D740080F0010184F8311210BD00BFD40000208E
:103D840038B505460024204618210DB1012200E073
:103D94002A460134E4B2FFF7B7FF122CF3D138BD41
:103DA40010B500242046013418210122E4B2FFF7A3
:103DB400ABFF122CF6D1024B012283F8312210BD45
:103DC400D400002010B5002420460134182100221C
:103DD400E4B2FFF799FF122CF6D1024B002283F8CC
:103DE400312210BDD400002019210122FFF78CBF1D
:103DF4000A4609B1FFF7F8BF1921FFF785BF0A4644
:103E0400182102B10122FFF77FBFF8B506460F461D
:103E1400FFF7EAFF134C94F84851002DFAD102231E
:103E2400042084F84D3184F84F3184F84C0184F82F
:103E34004B6184F84E71FFF74DFF30462946FFF77A
:103E4400D7FF0949B1F8C82002F0080398B238B97D
:103E540094F8F11194F8F02102EB012398B2F8BD23
:103E64002846F8BDD400002000000020F8B506461E
:103E74000F46FFF7B9FF124C94F84851002DFAD1C0
:103E840002230120042184F84D3184F84F0184F881
:103E94004C1184F84B6184F84E71FFF71BFF3046D8
:103EA4002946FFF7A5FF074AB2F8C83003F0080017
:103EB40081B211B994F8F001F8BD2846F8BD00BFED
:103EC400D40000200000002038B528210546FFF763
:103ED400CDFF292104462846FFF7C8FF04EB002044
:103EE40080B238BD38B526210546FFF7BFFF27212C
:103EF40004462846FFF7BAFF04EB002080B238BD21
:103F040038B524210546FFF7B1FF2521044628468C
:103F1400FFF7ACFF04EB002080B238BD38B505468E
:103F2400FFF7EEFF044642F21070FFF74DFA284601
:103F3400FFF7E6FF201A18BF012038BD38B51E214F
:103F44000546FFF793FF1F2104462846FFF78EFF1F
:103F540004EB002080B238BD38B500210546FFF7D8
:103F640085FF012104462846FFF780FF04EB00206B
:103F740080B238BD2B21FFF779BF2A21FFF776BF26
:103F84001821FFF773BF1021FFF770BF0421FFF75B
:103F94006DBF0221FFF76ABF70B505460F4C94F858
:103FA4004861002EFAD12846FFF71EFF01230220A4
:103FB40084F84D3184F84C0184F84B51FFF78AFEA4
:103FC40046F2A810FFF700FA28463146FFF710FF23
:103FD4000349B1F8C82090B270BD00BFD4000020DE
:103FE4000000002010B50446FFF7FEFE00210A463B
:103FF4002046FFF789FE20460021BDE81040FFF768
:10400400F7BE1FB50446684602F0C4F90094124C8A
:104014000C200023ADF80A002046ADF80430ADF8BA
:104024000630ADF80830ADF80C3002F025F942F254
:104034001070FFF7C9F92046694602F067F9204677
:10404400012240F2255102F0D2F92046012102F06A
:10405400C2F9012004B010BD00480040014800210D
:1040640002F0B9B900480040C8235843FFF754BBD5
:10407400034B186CD0F1010038BF0020704700BF1B
:10408400D400002010B504460420FFF799F808482E
:10409400214602F008FA0648402102F05FFA00289F
:1040A400F9D004200021BDE81040FFF75FB900BF3C
:1040B400004800400E4BB3F83212B3F8342288B2F1
:1040C40091B2884212D0B3F8340282B29918013204
:1040D40091F8360291B2A3F83412B3F8342291B2B3
:1040E4007F2904D90022A3F834227047FF207047A7
:1040F400D4000020084BB3F83212B3F8342288B24B
:1041040091B2884206D0B3F8340282B29B1893F875
:1041140036027047FF207047D400002070B527484E
:1041240040F2255102F024FA002846D0234802F038
:10413400BEF9C6B2232E224D04D195F8B602411C15
:10414400CBB200E00023052085F8B63295F8B632EC
:104154001B4CFFF735F8B5F83222B4F8320293B2AB
:104164007E2B81B205D86018013180F836628BB29B
:1041740003E0621882F836620023A4F83232104B4E
:10418400B3F83422B3F8321290B28AB2904205D115
:10419400B3F83402411C8AB2A3F83422B3F834329F
:1041A40098B27F2803D9064A0021A2F834120520C8
:1041B4000021BDE87040FFF7D9B870BD0048004049
:1041C400D4000020034B0022A3F83222A3F83422A7
:1041D400704700BFD400002008B5104BB3F832126A
:1041E400B3F8342288B291B2884203D1FFF7EAFFD0
:1041F400002008BDB3F83402B3F8322281B292B27F
:10420400B3F83202914229BF80B2B3F83432B3F822
:1042140034328038C31A03F0FF0008BDD4000020F4
:10422400FFF77CBF08B5FFF7ECFE003018BF012094
:1042340008BDFFF713BF0A2810B5044603D10D20AB
:10424400FFF720FF2046FFF71DFF204610BD38B5BD
:1042540005460024285D18B10134FFF7ECFFF9E7A7
:10426400204638BD08B54FF4FA60FFF755FAFFF75A
:10427400FFFE40B1FFF7B0FF50B1FFF71BFF0D2861
:1042840008BF0A2008BDFFF7A7FF0028EFD0F1E719
:10429400FF2008BD38B5054600244FF4FA60FFF747
:1042A4003BFAFFF7E5FE18B1FFF796FF50B904E0BB
:1042B400FFF792FF0028F4D0F6E70CB9002511E0CF
:1042C40028550FE0FFF7F6FE0A2804D1002CF5D09C
:1042D40000232B5506E00028F8D028550134E4B219
:1042E400802CDAD1284638BD00F0040310B504460A
:1042F40098B210B11B48FFF7AAFF04F008018AB274
:1043040012B11948FFF7A3FF04F0100398B210B1DB
:104314001648FFF79CFF04F020018AB212B114483A
:10432400FFF795FF04F0400398B210B11148FFF76E
:104334008EFF04F400718AB212B10F48FFF787FFB1
:1043440004F4806398B210B10C48FFF780FF04F4C2
:104354008054A4B224B10A48BDE81040FFF777BFE7
:1043640010BD00BF5568000887680008BB680008D6
:10437400E868000811690008506900087E690008AF
:10438400AA6900081FB5124B186899889A7953F8DE
:10439400074F009098889B790294ADF804108DF82B
:1043A4000620ADF80C008DF80E30002402AA1DF88A
:1043B4000410125DFE20FFF7A7FC80B2FFF794FF04
:1043C400013446F2A810FEF7FFFF072CEED11FBD03
:1043D40024670008FFF72FBF70B50F4B90B0054658
:1043E40001AA03F1380618685968144603C408334F
:1043F400B3422246F7D1186810A9206001EB4504A6
:1044040014F83C0CFFF7E6FF14F83B0C10B0BDE8C1
:104414007040FFF7DFBF00BF3267000810B50446E5
:104424000848FFF714FF42F21070FEF7CDFF204654
:10443400FFF70DFF044646F2A810FEF7C5FF20461D
:1044440010BD00BF7F6D000808B50D4B93F84801FF
:104454000028FAD10B48FFF7E1FFFEF737FF4FF4CE
:104464000051094801F0BFFA0848FEF7ADFF0648BD
:104474004FF4005101F0B5FA0448FEF7A5FFEEE74A
:10448400D4000020DE69000800100140B0710B0068
:1044940010B5FFF7DCFE044646F2A810FEF794FFC1
:1044A400204610BD37B5134B002418689A889979B3
:1044B4000090ADF804208DF806101DF80400FFF7F5
:1044C400A3FB0128E5B20FD1022D05D0042D05D0A0
:1044D400012D0CD1084802E0084800E0084803B068
:1044E400BDE83040FFF7D4BF0134072CE5D103B059
:1044F40030BD00BF6E670008EF690008056A000858
:10450400196A00082DE9F843164605468846FFF760
:104514006BFC134B93F84821994612B11148FFF7ED
:10452400B7FF99F848710E4C002FFAD10E48FFF7E7
:10453400AFFF0320052184F84F61360A84F84D014A
:1045440084F84C1184F84B5184F84E8184F85061FE
:10455400FFF7C0FB28463946BDE8F843FFF748BCDF
:10456400D40000202A6A0008546A0008B1F5806F5C
:104574000A4603D21E2192B2FFF7C4BF704738B572
:10458400012219210446FFF7BFFB2A48FFF780FFE9
:1045940003212046FFF76AFCFFF774FD2648FFF766
:1045A40077FF00212046FFF761FC012105462046E4
:1045B400FFF75CFCE9B22046FFF727FCC0B2FFF727
:1045C40061FD1E48FFF764FF02212046FFF74EFC01
:1045D400FFF758FD1A48FFF75BFF04212046FFF759
:1045E40045FCFFF74FFD1748FFF752FF0521204612
:1045F400FFF73CFCFFF746FD1348FFF749FF102186
:104604002046FFF733FCFFF73DFD1048FFF740FF5E
:1046140020462421FFF72AFC252105462046FFF7E2
:1046240025FC2046E9B2FFF7F0FBC0B2BDE83840F4
:10463400FFF728BD616A0008756A0008896A0008E6
:104644009D6A0008B16A0008C56A0008D96A0008B2
:1046540010B5002420460134FFF791FFE4B24FF473
:104664007A70FEF7B1FE122CF4D110BD38B52D4B83
:10467400B3F8C80081B24A1E02F0FF03012B01D82F
:1046840029484AE001F00400C2B20AB1274804E014
:1046940001F00803D8B218B12548FFF7F9FE3BE052
:1046A40001F01002D3B20BB12248F6E701F020006A
:1046B400C2B20AB12048F0E701F04001CBB20BB11D
:1046C4001E48EAE7062501242046FFF79DFAE0B1DB
:1046D40001281DD1042C10D005D8012C0BD0022C9C
:1046E40011D1174819E0102C09D0202C09D0082C1E
:1046F40009D1144811E014480FE014480DE014489F
:104704000BE0144809E0144807E01448FFF7C0FE22
:104714006400013DE4B2D7D11148BDE83840FFF749
:10472400B7BE00BF00000020ED6A0008F66A00086A
:10473400276B00085A6B0008866B0008AE6B0008F4
:10474400056A0008776C0008EF690008196A000818
:104754008C6C00089D6C0008AE6C0008526A00085E
:104764007F6D000870B5461C0546F6B2264C94F8D9
:104774004831002BFAD1FFF789FA0120022184F88D
:104784004D01224884F84C1184F84B61FFF746FE32
:104794002846FFF721FE1E48FFF77AFEFFF79AFA34
:1047A4004FF47A741B4BB3F8C82095B2B5F5806FFB
:1047B4001D4610D0B3F8C80081B202290BD0B3F85B
:1047C400C8309AB2012A06D04FF47A70013CFEF741
:1047D400FBFD012CE6D1B5F8C80081B2022905D051
:1047E4000C4BB3F8C82090B2012801D10A4802E06A
:1047F400092C03DC0948FFF74BFE01E0FFF736FF05
:10480400BDE87040FFF742BAD4000020D46C000821
:10481400D96C000800000020E86C0008F16C000866
:1048240038B505461448FFF733FE144C94F8483164
:10483400002BFAD11248FFF72BFEFFF727FA114895
:10484400FFF726FE0120022184F84D010E4884F86A
:104854004C1184F84B51FFF71BFEFFF73BFAFFF7AF
:1048640005FF0A48FFF714FEFFF710FA0848BDE8F1
:104874003840FFF70DBE00BFFA6C0008D4000020DA
:10488400166D0008366D0008656D0008226D00087D
:10489400766D000810B5002420460134FFF7C0FFF0
:1048A400E4B20348FFF7F4FD122CF5D110BD00BFAC
:1048B4007F6D000808B50948FFF7EAFD0120FFF7FE
:1048C40029F808B1064800E00648FFF7E1FD4CF27C
:1048D4005030BDE80840FEF777BD00BF816D000889
:1048E400686E00089E6D0008FFF7BCBCFFF7D2BCE1
:1048F4001FB5164A0023B0FBF2F102FB110001F0D0
:104904000F01303101AC19550A2101338B42B2FB3E
:10491400F1F2F0D100208DF80E009DF8041030293A
:1049240007D0013B13F0FF03F7D101A8FFF78FFC79
:104934001FBD01A80DF103020930917802F8011F8F
:104944000029EED08242F8D1EBE700BF00CA9A3BBF
:1049540010B50620FEF75DFDC0F30F141648FFF7EF
:1049640097FD2046FFF7C4FF1448FFF791FD722C12
:1049740020D864214FF4FA70FEF794FE4FF4FA70D5
:1049840041F28831FEF78EFE64214FF4FA70FEF78F
:1049940089FE41F288314FF4FA70FEF783FE08482D
:1049A400FFF776FD0748FFF773FD0548BDE81040A3
:1049B400FFF76EBD10BD00BFB86D0008CB6D0008D9
:1049C400D86D0008036E000830B52B2385B0194A52
:1049D4008DF804300023B0FBF2F102FB110004ADAA
:1049E40001F00F013031EC1804F80B1C01330A21DB
:1049F4008B42B2FBF1F2EED100208DF80F000B22B6
:104A04009DF80410302908D0013A12F0FF02F7D1C2
:104A140001A8FFF71CFC05B030BD01A80DF103038C
:104A24000A30997803F8011F0029EDD08342F8D1A8
:104A3400EAE700BF00CA9A3B07B5302378218DF816
:104A44000030030B8DF8011003F1300100223929E5
:104A54008DF8062002D88DF8021002E037338DF865
:104A64000230C0F3032303F13002392A02D88DF84F
:104A7400032002E037338DF80330C0F3031101F152
:104A84003003392B02D88DF8043002E037318DF829
:104A9400041000F00F0000F13002392A02D88DF81A
:104AA400052002E037308DF805006846FFF7CFFB9C
:104AB4000EBD07B5302378218DF8003003098DF839
:104AC400011003F13001002239298DF8042002D8A5
:104AD4008DF8021002E037338DF8023000F00F0039
:104AE40000F13002392A02D88DF8032002E0373071
:104AF4008DF803006846FFF7AAFB0EBD38B51548CC
:104B0400FFF7C6FC0024651C1348EDB2FFF7C0FC98
:104B14002846FFF7CEFF1148FFF7BAFC2046FFF7FF
:104B24003BFA04280BD004D8012806D0022806D169
:104B340003E0102803D10A4802E00A4800E00A48CA
:104B4400FFF7A6FC122D2C46DDD10848BDE83840FD
:104B5400FFF79EBC1C6E0008346E0008C86D000888
:104B6400456E0008396E00083F6E00084C6E000860
:104B7400354B10B5DA68D868012A02D9441EDC60C6
:104B840007E030B1D9684C1EDC601A7C501EC1B2FB
:104B940019742D4C636B626B012B0CD9511E61632C
:104BA400646B062014F4805102D0FEF709FB0EE07A
:104BB400FEF7DCFB0BE052B106200021FEF7D6FB2A
:104BC400606B411E6163237C5A1ED0B220741E4B5D
:104BD4009A6B986B012A02D9441E9C6307E030B19A
:104BE400996B4C1E9C631A7C501EC1B21974164BEF
:104BF400DA6BD86B012A02D9441EDC6307E030B1BA
:104C0400D96B4C1EDC631A7C501EC1B219740E4B56
:104C14001A6C186C012A02D9441E1C6407E030B1D6
:104C2400196C4C1E1C641A7C501EC1B21974064BBC
:104C34001C7C44B96FF0010001F0EAFA2046BDE89B
:104C4400104001F0E5BA10BDD400002008B55A2088
:104C540001F0D8FA012001F0EFFA024B00221A7495
:104C640008BD00BFD400002010B501F023F94FF4B3
:104C7400803001F03DF901F08BFA0128044613D08D
:104C8400012140F21C6001F02DFA01214FF4804013
:104C940001F028FA4FF48020012101F02FFA0120BD
:104CA400BDE8104001F0AFB8102000F0ABFB0220CB
:104CB40000F090FB002001F067F9002001F078F982
:104CC4004FF4806001F06AF94FF480304FF4E01142
:104CD40001F038F9204601F03FF9392001F044FA97
:104CE4000028FAD0022001F03DF901F045F9082826
:104CF400FBD1C5E737B54FF440514FF0006000F0E9
:104D0400BBFF4FF4A06000F00BFF00250124252316
:104D140001A88DF804308DF805508DF806508DF8F3
:104D2400074000F007FF27208DF8040001A88DF844
:104D340005508DF806408DF8074000F0FBFE352144
:104D4400022201A88DF804108DF805508DF8062074
:104D54008DF8074000F0EEFE3EBD2DE9F3476C4EA2
:104D640001A8032400F023FE102540F60F1330465B
:104D740001A9ADF804308DF806408DF8075000F015
:104D8400C6FD4FF48250ADF8040001A930468DF8F9
:104D940006408DF8075000F0BAFD2021ADF804104C
:104DA4004FF00009304601A948278DF8079000F01C
:104DB400AEFD4FF44042304601A906F58066ADF8D9
:104DC40004208DF8077000F0A2FD4FF470433046C4
:104DD40001A9ADF804308DF806408DF8075000F0B5
:104DE40096FD3020ADF8040001A930464FF00408C8
:104DF4008DF806408DF8075000F089FD4FF40861E6
:104E0400ADF8041030460DEB08014FF0180A8DF888
:104E1400078000F07CFD4FF4886230460DEB0801FA
:104E2400ADF804208DF806408DF807A000F06FFD62
:104E3400082330460DEB080106F58066ADF8043012
:104E44008DF8077000F063FD4FF47070ADF8040046
:104E54000DEB080130468DF806408DF8075000F040
:104E640056FD0621ADF8041030460DEB08018DF80F
:104E740006408DF8075000F04AFD4FF4604230467A
:104E84000DEB0801ADF804208DF806408DF80750AD
:104E940000F03DFD4FF4805330460DEB0801ADF8B2
:104EA40004308DF806408DF807A000F030FD09208D
:104EB400ADF804000DEB080130468DF8079000F0C2
:104EC40026FD30460DEB0801ADF804508DF807704F
:104ED40000F01DFD4FF44061ADF8041030460DEBB9
:104EE40008018DF8077000F012FD0DEB0801094868
:104EF400ADF804808DF8078000F009FD40460121DB
:104F040000F096FD0448012100F092FDBDE8FC8705
:104F140000080140001401400004300030B587B09F
:104F240001A800F003F9002402234FF460252C4863
:104F340001A98DF8143001948DF808408DF80940CA
:104F44000494039500F0CEF801948DF808408DF890
:104F5400094004942348012401A903958DF81440C1
:104F640000F0C0F81E480A212246072300F032F957
:104F7400224607231B48052100F02CF91848214636
:104F840000F0DDF81748214600F0D9F8144800F085
:104F9400F1F8134800F0F3F80028FAD1114800F0B2
:104FA400E9F8104800F0EBF80028FAD10C4800F0BA
:104FB400EAF80B4800F0ECF80028FAD1094800F0B0
:104FC400E2F8084800F0E4F80028FAD10121044886
:104FD40000F0E2F80348012100F0DEF807B030BD2C
:104FE400002401400028014038B5234B0022234D02
:104FF40083F8B622FFF738FEFFF77CFEFFF7ADFE1D
:10500400FFF724FEFFF78AFF1D48FEF7DDF9D5F808
:10501400CC00FFF707F9D0F10104194838BF002488
:10502400FEF7D2F995F8D000FEF774FC10B944F0FD
:105034000404A4B2032004F00101FEF797F902204E
:105044000021FEF793F9012004F00401FEF78EF924
:1050540054B100250020E9B2FEF788F9094885F02B
:105064000105FEF7B1F9F5E70548FEF7ADF9064885
:10507400BDE83840FFF70CBAD4000020000000203F
:10508400A086010020A10700676E000808B5144B34
:1050940098420FD003F5A051884213D0A1F5C05215
:1050A40090421BD14FF40070012101F033F84FF40A
:1050B40000700EE04FF48060012101F02BF84FF4F2
:1050C400806006E04FF40040012101F023F84FF422
:1050D40000400021BDE8084001F01CB808BD00BF35
:1050E40000280140426810B522F470230A6823F4B2
:1050F400807444EA02030C7943EA04224260CB68D8
:105104008A6884681A43084B234013434A7943EA64
:1051140042038360097CC26A4B1E22F47002D9B236
:1051240042EA0152C26210BDFDF7F1FF00230121E2
:105134000360037143718360C360017470478368C3
:1051440011B143F0010101E023F0010181607047D6
:10515400836811B143F4807101E023F480718160AC
:105164007047C9B243680AB1194301E023EA010157
:1051740041607047836843F008018160704780682C
:10518400C0F3C0007047836843F004018160704736
:105194008068C0F380007047836811B143F4A001B4
:1051A40001E023F4A001816070478068C0F380505F
:1051B40070474368013923F4604242EA4133436053
:1051C4007047436811B143F4006101E023F40061C6
:1051D40041607047092970B54FF003040CD94C4362
:1051E40007251E3C05FA04F503FA04F3C66826EA0B
:1051F40005052B43C3600BE04C43072505FA04F572
:1052040003FA04F3066926EA050545EA0304046182
:10521400062A4FF005030DD8013A53431F2202FA20
:1052240003F201FA03F1446B24EA020242EA0103A5
:10523400436370BD0C2A0DD853431F22233B02FA4B
:1052440003F201FA03F1046B24EA020242EA0103C5
:10525400036370BD53431F22413B02FA03F201FA78
:1052640003F1C46A24EA02021143C16270BD836877
:1052740011B143F4801101E023F48011816070477F
:10528400C06C80B27047014B186870474C240140D1
:10529400436811B143F4806101E023F4806141600B
:1052A4007047436811B143F4805101E023F4805105
:1052B40041607047836823F4E04211438160704782
:1052C400836811B143F4004101E023F4004181609B
:1052D4007047836811B143F4021101E023F4021111
:1052E400816070478068C0F340507047092970B5E9
:1052F4004FF003040CD94C4307251E3C05FA04F572
:1053040003FA04F3C66826EA05052B43C3600BE0E1
:105314004C43072505FA04F503FA04F3066926EA63
:10532400050545EA03040461846BC4F30153D21AEE
:10533400931CDBB2052253431F2202FA03F201FA43
:1053440003F124EA02042143816370BD836B0139B4
:1053540023F4401242EA015383637047425070477A
:105364002830405880B27047436823F4400222F446
:105374000073194341607047416282627047436819
:1053840023F01F02114341607047054B9A6810B126
:1053940042F4000001E022F400009860704700BF6E
:1053A40000240140036819420CBF0020012070470B
:1053B400C943016070474368006810EA112004D0B3
:1053C400C9B219420CBF0020012070476FEA1121B5
:1053D40001607047044B1A6802F0380119601A68BA
:1053E40010431860704700BF00200240044B1A6845
:1053F40022F0080119601A6810431860704700BF52
:1054040000200240044B1A6822F0100119601A6847
:1054140010431860704700BF00200240034A044B49
:1054240002F188305A605860704700BF2301674515
:1054340000200240024B1A6942F080001861704754
:1054440000200240014BD8698008704700200240C8
:10545400014B186A704700BF00200240024BD86914
:10546400C0F34000704700BF00200240024B1868A0
:10547400C0F34010704700BF00200240044B1A697B
:1054840009B1104301E022EA00001861704700BF2F
:10549400002002400128064B03D1D86900F0010026
:1054A4007047D96808420CBF00200120704700BF34
:1054B40000200240014BD860704700BF002002402A
:1054C400084BDA68D10709D4D868420708D4D968E8
:1054D40011F0100F0CBF0420032070470120704707
:1054E400022070470020024013B50446FFF7E8FF8E
:1054F40001280FD164B100230193FF220192019886
:1055040010B101994A1EF9E7FFF7DAFF013CEFE712
:10551400052002E0002C08BF05201CBDF8B5114B86
:10552400114C054603F18830A360A0600F200E469D
:105534001746FFF7D9FF042813D1216945F0F80570
:105544000A4B2E4341F01002374322610F205F8043
:10555400FFF7CAFF012804D0216941F6EF720A401F
:105564002261F8BD230167450020024000F8FF1FB7
:1055740038B5054640F6FF70FFF7B6FF042838D16A
:105584001C4B1D4C03F18830A360A060216941F0DD
:1055940020022261236943F04000206140F6FF703D
:1055A400FFF7A2FF04281DD1206941F6DF730340F1
:1055B40023612169114841F0100222610DB10023D9
:1055C40000E0A523038040F6FF70FFF78DFF01285C
:1055D40001D1012038BD084A41F6EF7311690B402F
:1055E400136138BD0128F4D0216941F6DF720A4005
:1055F400226138BD230167450020024000F8FF1FE7
:1056040010B504460F20FFF76FFF04283ED1204950
:10561400204B01F1883099609860E4431969E2B243
:1056240041F01000FF2A186104D1C4F30721FF29B7
:1056340008D10EE0184B0F201A81FFF755FF0428FC
:105644001CD1F2E7144A0F205181FFF74DFF0428C3
:1056540014D1C4F30740FF2806D00F4B98810F20C4
:10566400FFF742FF042809D1240EFF2C01D10420A6
:1056740006E009490F20CC81FFF736FF012805D049
:10568400044A41F6EF7311690B40136110BD00BF6A
:10569400230167450020024000F8FF1F70B505464E
:1056A4000F200E46FFF720FF042814D10A4B0B4CA1
:1056B40003F18830A360A06021690F2041F010023B
:1056C40022612E80FFF710FF012804D0216941F6E2
:1056D400EF730B40236170BD230167450020024036
:1056E40070B505460F200E46FFF7FEFE04280FD1C5
:1056F400084C236943F0010020610F202E80FFF73E
:10570400F3FE012804D0226941F6FE7111402161A3
:1057140070BD00BF0020024070B505460F200E4644
:10572400FFF7E2FE042819D10D4CB1B2236943F00E
:10573400010020610F202980FFF7D6FE042804D140
:10574400360C6E800F20FFF7CFFE012801D1012017
:1057540070BD226941F6FE731340236170BD00BF22
:105764000020024010B540F6FF70FFF7BDFE04288C
:105774002BD1164B164C03F18830A360A06021692D
:1057840041F020022261236943F04000206140F689
:10579400FF70FFF7A9FE04280ED1216941F6DF72DC
:1057A4000A40226123690B4A43F01000A5212061BD
:1057B40011800F20FFF798FE012801D1012010BDB0
:1057C400216941F6EF730B40236110BD2301674546
:1057D4000020024000F8FF1F10B540F6FF70FFF7ED
:1057E40083FE042813D10A4C236943F0040020618A
:1057F400216940F6FF7041F040022261FFF774FE18
:10580400012804D0216941F6FB730B40236110BDCC
:105814000020024038B5054640F6FF70FFF764FEED
:10582400042814D10A4C236943F002002061656105
:10583400216940F6FF7041F040022261FFF754FEF7
:10584400012804D0216941F6FD730B40236138BD62
:105854000020024008B5264B98422FD011D8A3F55A
:10586400006188421ED001F58062904220D0A2F5EA
:10587400006398423AD10420012100F04BFC04203B
:105884002FE01C4988421FD001F58062904221D04C
:10589400A2F50063984229D14020012100F03AFC8E
:1058A40040201EE00820012100F034FC082018E00C
:1058B4001020012100F02EFC102012E020200121F4
:1058C40000F028FC20200CE08020012100F022FCC4
:1058D400802006E04FF48070012100F01BFC4FF49F
:1058E40080700021BDE8084000F014BC08BD00BF72
:1058F40000140140001C01400120014608B500F0DD
:1059040009FC01200021BDE8084000F003BCCB786D
:10591400F0B5DA0648BF8A78098803F00F0548BF56
:10592400154311F0FF0F1ED004680022012707FA67
:1059340002F707EA0106BE4211D197004FF00F0C9F
:105944000CFA07FC05FA07F724EA0C04282B44EAAE
:10595400070401D1466102E0482B08BF0661013209
:10596400082AE3D10460FF2920D94468002202F107
:105974000806012707FA06F707EA0106BE4211D115
:1059840097004FF00F0C0CFA07FC05FA07F724EA0E
:105994000C04282B44EA070401D1466102E0482B99
:1059A40008BF06610132082AE1D14460F0BD4FF618
:1059B400FF730221042203808170C27070478368E0
:1059C40019420CBF002001207047806880B27047E4
:1059D400C36819420CBF002001207047C06880B220
:1059E400704701617047416170470AB101617047B6
:1059F40041617047C160704741F4803383618161C4
:105A04008361836983697047054A10B514684FF64A
:105A14008073234041EA001141EA0300106010BD85
:105A240000000140014B1860704700BF1C00204279
:105A340030B5144A00F44015B5F5401F536884B2DC
:105A440006D1556823F0706325F0706555600FE04A
:105A5400C20205D5C0F30342032505FA02F203E0AE
:105A6400420D120104FA02F223EA020343F07063C6
:105A740021B1400D010104FA01F42343014A5360AA
:105A840030BD00BF0000014001F0030230B59200B8
:105A94000F2404FA02F400FA02F0074B89080231D9
:105AA40053F8215025EA040443F8214053F82140D7
:105AB400044343F8214030BD000001400B4B6FF01C
:105AC40070424FF0FF31C3F88010C3F88420C3F84C
:105AD4008011C3F88421002202F1C00101320020A8
:105AE4000F2A43F82100F7D1704700BF00E100E01E
:105AF400094B4FF0206209495A6000204FF0FF32F1
:105B04009860D960186158619861D86118625862C8
:105B14009A62DA621A63704700ED00E00000FA0549
:105B240040F0BF60024B40F40031D960704700BFC1
:105B340000ED00E0C37870B573B31D4C4378E5689D
:105B4400EE43C6F302210F25C1F1040225FA01F543
:105B540003FA02F486780178354001F00302254304
:105B64002D01D4008A08FF2105FA04F501FA04F195
:105B7400104BC03253F8226026EA01042940214325
:105B840043F822100078410900F01F02012000FAB6
:105B940002F243F8212070BD0078012200F01F03B7
:105BA400410902FA03F0034B203143F8210070BD90
:105BB40000ED00E000E100E0002303704370837017
:105BC400C370704700F021BD00F021BD00F021BD7D
:105BD40000F021BD000100F020BD00F021BD024B0A
:105BE4005868C0F30930704700ED00E000F01F036F
:105BF400012202FA03F14009044B403053F82020FB
:105C04000A40511A48424841704700BF00E100E091
:105C1400014B1860704700BF00EF00E04209012308
:105C240000F01F0003FA00F10248603240F822102D
:105C3400704700BF00E100E0024B58688105880D01
:105C4400704700BF00ED00E000F01F03012202FADC
:105C540003F14009044B803053F820200A40511AC4
:105C640048424841704700BF00E100E0014B18681A
:105C7400704700BF00ED00E021F0604121F07F0299
:105C8400014B10439860704700ED00E0014A024B5D
:105C9400DA6070470400FA0500ED00E0014A024BA7
:105CA400DA6070470100FA0500ED00E0044B1A6960
:105CB40009B1104301E022EA00001861704700BFF7
:105CC40000ED00E0012300F01F0003FA00F0044B94
:105CD4005A6A09B1104301E022EA00005862704791
:105CE40000ED00E0124B70B5DC68E543C5F3022615
:105CF400FF25C6F1040425FA06F601FA04F1324040
:105D04001143C0F38112C0F30120C00005FA00F56D
:105D1400090101FA00F1063253F8224024EA05058C
:105D240043F8225053F82260314343F8221070BDE7
:105D340000ED00E0C0F38320012303FA00F3034ADB
:105D4400516A1940CB1A58425841704700ED00E09F
:105D540000F01F00012101FA00F0024B5A680243CF
:105D64005A60704700ED00E000F01F00411E012062
:105D740000FA01F1024B5A680A435A60704700BFA7
:105D840000ED00E0C0F38330012303FA00F3054A79
:105D9400516A1940B1EB030CDCF1000050EB0C002C
:105DA400704700BF00ED00E0C0F38142094B0AB91F
:105DB400D86A7047012A0BD1C0F30151986ACA000E
:105DC40020FA02F0022914BF00F00F00C0B270479D
:105DD400186B704700ED00E0034B10F4800F0CBF0C
:105DE400586B986B704700BF00ED00E0012108B5C7
:105DF4004FF0805000F09AF94FF080500021BDE838
:105E0400084000F093B9014B1860704720000E421F
:105E1400014B1860704700BF10000E42034B1A6814
:105E240022F0E00108431860704700BF0070004092
:105E3400014B1860704700BFA0000E42084B0129B7
:105E44001A6822F0030240EA020018600548036859
:105E540043F00402026001D100F0B2BB00F0B2BB17
:105E64000070004010ED00E0074B1A6842F0040097
:105E74001860196841F002021A60044B186840F077
:105E84000401196000F09CBB0070004010ED00E0BC
:105E9400034B596808420CBF00200120704700BF23
:105EA40000700040024B1A6842EA80001860704794
:105EB400007000400C4B1A6842F0010018605968E9
:105EC4000A4A0A405A60186820F0847121F480322A
:105ED4001A60186820F4802119605A68002122F49D
:105EE400FE00586099607047001002400000FFF8FF
:105EF4000B4BB0F5803F1A6822F4803119601A68A0
:105F040022F48021196006D0B0F5802F07D11868DB
:105F140040F4A02202E0196841F480321A6070470C
:105F240000100240034B1A6822F0F80141EAC00055
:105F34001860704700100240014B1860704700BFA2
:105F440000004242034B5A6822F47C12104301437E
:105F54005960704700100240014B1860704700BF41
:105F640060004242034B5A6822F003010843586020
:105F7400704700BF00100240024B586800F00C004C
:105F8400704700BF00100240034B5A6822F0F00132
:105F940008435860704700BF00100240034B5A6822
:105FA40022F4E06108435860704700BF00100240CB
:105FB400034B5A6822F4605141EAC00058607047AC
:105FC40000100240044B1A7809B1104301E022EAA0
:105FD40000001870704700BF09100240014B1860A0
:105FE400704700BFD8004242034B5A6822F4404134
:105FF40008435860704700BF00100240064B00225F
:1060040001281A701A7004D0042804D105201870CD
:1060140001E018707047704720100240014B18606F
:10602400704700BF80044242024B1A6A1043186250
:10603400704700BF00100240014B1860704700BF5A
:106044003C0442421D4B10B55A6802F00C0104296D
:1060540001D0082902D01A4C04600EE05C6859682B
:10606400C4F38342941CC90302D55B689B0301D526
:10607400144A00E0124A54430460104A124B516817
:10608400C1F303141C5D016821FA04F141605468F2
:10609400C4F302241C5D21FA04F484605468C4F33C
:1060A400C2241C5D21FA04F1C1605268C2F381323A
:1060B4009B181A7CB1FBF2F1016110BD0010024083
:1060C40000127A0000093D00A2670008044B5A69D7
:1060D40009B1104301E022EA00005861704700BF93
:1060E40000100240044B9A6909B1104301E022EA0E
:1060F40000009861704700BF00100240044BDA6949
:1061040009B1104301E022EA0000D861704700BFE2
:1061140000100240044BDA6809B1104301E022EA9E
:106124000000D860704700BF00100240044B1A6999
:1061340009B1104301E022EA00001861704700BF72
:1061440000100240014B1860704700BF40044242F7
:10615400014B1860704700BF4C004242014B18705D
:10616400704700BF071002404309012B074A01D1C1
:10617400136803E0022B0CBF136A536A00F01F007C
:1061840023FA00F101F00100704700BF0010024043
:1061940007B5002301933120FFF7E6FF01994A1C5C
:1061A400019218B90198B0F5A06FF4D13120FFF72E
:1061B400DBFF003018BF01200EBD034B5A6A42F0CA
:1061C40080705862704700BF00100240034B99680A
:1061D40008420CBF00200120704700BF001002409D
:1061E400014B1870704700BF0A100240044B04288A
:1061F4001A680CBF42F0040222F004021A607047CD
:1062040010E000E0014B5860704700BF10E000E070
:106214000128084B03D11A6842F0010104E002305E
:1062240004D1186820F001011960704700229A60B7
:10623400704700BF10E000E0044B1A6810B142F050
:10624400020001E022F002001860704710E000E054
:10625400014B9868704700BF10E000E00549C3088F
:10626400022B0CBF0968C96821FA00F000F0010094
:10627400704700BF10E000E008B5224B98422BD0D5
:106284000FD8A3F5006188421ED001F580629042C8
:1062940036D14FF480200121FFF748FF4FF48020CE
:1062A40029E0194B98421FD003F56841884227D151
:1062B40001214FF48040FFF72DFF4FF4804000216F
:1062C400BDE80840FFF726BF4FF400300121FFF777
:1062D4002DFF4FF400300EE04FF400200121FFF7B2
:1062E40025FF4FF4002006E04FF480100121FFF752
:1062F4001DFF4FF480100021BDE80840FFF716BFD2
:1063040008BD00BF004C004000500040038A30B577
:106314000D460446EA8898B220F440511143218284
:10632400A3892889A98823F4B05340EA0102688923
:1063340023F00C0102430804030C1A4391B2A18117
:10634400A08AAA8983B223F4407187B01143A18241
:1063540001A8FFF777FE0E48296884420CBF049811
:106364000398192358438A00B0FBF2F16423B1FB6C
:10637400F3F00201100903FB101108013230B0FBE5
:10638400F3F303F00F010A4390B2208107B030BD4C
:106394000038014000214FF416530C220360818021
:1063A400C18001814281818170470B8810B54C887E
:1063B400028A23438C88C98892B223430B4322F474
:1063C400706213439BB2038210BD00230380438099
:1063D4008380C3807047838919B199B241F4005313
:1063E40003E023F400510A04130C83817047C1F3C2
:1063F400421310B5012401F01F01A34204FA01F174
:1064040001D10C3004E0022B01D1103000E0143033
:10641400036812B143EA010201E023EA01020260C7
:1064240010BD838A9BB20AB1194301E023EA01013A
:1064340081827047038A23F00F0213041A0C02822C
:10644400038A9AB2114301827047838923F400625C
:1064540013041A0C828183899AB211438181704793
:10646400838919B199B241F0020303E023F00201D8
:106474000A04130C83817047038A23F02002130457
:106484001A0C0282038A9AB2114301827047038A6A
:1064940019B199B241F4804303E023F480410A0422
:1064A400130C03827047C905CA0D82807047808827
:1064B400C105C80D7047838999B241F001028281F8
:1064C4007047038BDAB20283038B9AB242EA01214A
:1064D40001837047038B03F47F420283038B9AB2D8
:1064E400114301837047838A19B199B241F02003A3
:1064F40003E023F020010A04130C83827047838A8B
:1065040019B199B241F0100303E023F010010A0419
:10651400130C83827047838A19B199B241F008033E
:1065240003E023F008010A04130C83827047838A72
:1065340023F0040213041A0C8282838A9AB2114350
:1065440081827047838A19B199B241F0020303E052
:1065540023F002010A04130C838270470388194252
:106564000CBF002001207047C9438AB202807047E3
:1065740010B5C1F34214012201F01F03012C02FAE9
:1065840003F201D1838903E0022C0CBF038A838ABE
:106594009BB20088134082B243B1090A012303FA73
:1065A40001F010420CBF0020012010BD184610BDA0
:1065B400090A012303FA01F3DA4391B20180704717
:1065C40030BF704720BF704740BF7047BFF36F8F25
:1065D4007047BFF34F8F7047BFF35F8F704701DF82
:1065E4007047EFF31480704780F31488BFF36F8F04
:1065F4007047EFF30980704780F309887047EFF321
:106604000880704780F30888704772B6704762B696
:10661400704771B6704761B6704780F31188704750
:10662400EFF31280704740BA704700BA7047000019
:10663400684620F007018D4601B500230B4A0C493A
:106644009818884204D20B49585898500433F5E7F7
:10665400094B0A4A934203D2002043F8040BF8E79B
:1066640000F00EF8BDE801408546704700000020A8
:10667400D4000020786E0008D40000208C03002091
:1066840010B5FEF7B1FCFCF71FFEFEF713F94FF44B
:10669400FA70FCF7B7FE0024E0B20134FEF762F8AA
:1066A400122CF9D14FF47A70FCF7ACFE1648FDF7C2
:1066B400B5FE24210320FDF7A8FBFEF7BDF913481E
:1066C400FDF7ACFE00210B20FDF799FB1048FDF708
:1066D400DFFE1048FDF7A2FE03204FF42071FDF702
:1066E40045FFFDF7C3FF0C48FDF798FE0121032089
:1066F400FDF785FB0948FDF7CBFE3220FCF782FE4F
:10670400FDF7A2FE002010BDB6670008DE67000892
:10671400F5670008FA6700082A6800084E68000850
:1067240011120B0C1A1B18242446460202013031A4
:106734003032303330343035303630373038303929
:106744003130313131323133313431353136313721
:106754003138313932303231323232333234323507
:1067640032363237323832393330010204081020DD
:1067740040120102030405060708090A0B0C0D0E5A
:106784000F101112000101010101010101010101B8
:1067940001010101010101000000000000000000EE
:1067A40000000102030401020304060708090204AD
:1067B40006080A4D616E6970756C6174696E6720B4
:1067C40044584C2D30333A0A43757272656E742006
:1067D400506F736974696F6E3A005475726E696EA6
:1067E40067206F666620746F727175652E2E2E2079
:1067F40000446F6E650053657474696E6720445875
:106804004C2D3033277320506F736974696F6E2079
:10681400746F203634302028332F342066756C6C26
:10682400292E2E2E0A00506F736974696F6E2053DF
:1068340065742E205475726E696E6720746F727160
:106844007565206F6E2E2E2E2000446F6E652E0A05
:1068540000434F4D4D5F54584641494C3A204661E0
:10686400696C6564207472616E736D697420696EFD
:10687400737472756374696F6E207061636B657491
:10688400210A00434F4D4D5F52584641494C3A202E
:106894004661696C656420676574207374617475FE
:1068A40073207061636B65742066726F6D2064651C
:1068B40076696365210A00434F4D4D5F5458455234
:1068C400524F523A20496E636F7272656374206945
:1068D4006E737472756374696F6E207061636B6537
:1068E40074210A00434F4D4D5F4241445F494E536A
:1068F400543A20496E76616C696420496E737472EF
:10690400756374696F6E20627974650A00434F4D34
:106914004D5F4241445F49443A2049442773206E05
:106924006F742073616D6520666F7220696E737475
:1069340072756374696F6E20616E64207374617420
:106944007573207061636B6574730A00434F4D4D1A
:106954005F525857414954494E473A204E6F772069
:10696400726563656976696E6720737461747573A3
:10697400207061636B6574210A00434F4D4D5F5273
:106984005854494D454F55543A2054686572652012
:106994006973206E6F207374617475732070616302
:1069A4006B6574210A00434F4D4D5F52584348456F
:1069B400434B53554D3A20496E636F72726563744D
:1069C40020737461747573207061636B65742063E4
:1069D4006865636B73756D210A00456E64206F668C
:1069E4002050726F6772616D2E0A00496E70757463
:1069F40020766F6C74616765206572726F72210A0C
:106A040000416E676C65206C696D697420657272F3
:106A14006F72210A004F7665726865617420657231
:106A2400726F72210A00417474656D7074696E67C7
:106A340020746F2077726974655F776F72642C209D
:106A44006275742062757320696E207573652E00FB
:106A5400446F6E652077616974696E670044584CB1
:106A64002049443A202020202020202020202020BB
:106A74000044584C204D6F64656C3A20202020203F
:106A8400202020200044584C204669726D776172A2
:106A9400653A2020202020200044584C2042617573
:106AA40064726174653A2020202020200044656CC3
:106AB40061793A202020202020202020202020201E
:106AC40000537461747573204C6576656C3A2020AC
:106AD400202020200043757272656E7420506F73FD
:106AE4006974696F6E3A202000537563636573732C
:106AF4000A00434F4D4D5F54584641494C3A204695
:106B040061696C6564207472616E736D6974206967
:106B14006E737472756374696F6E207061636B65F4
:106B2400742100434F4D4D5F52584641494C3A2021
:106B34004661696C6564206765742073746174755B
:106B440073207061636B65742066726F6D20646579
:106B5400766963652100434F4D4D5F545845525249
:106B64004F523A20496E636F727265637420696E86
:106B7400737472756374696F6E207061636B65748E
:106B84002100434F4D4D5F4241445F494E53543AB7
:106B940020496E76616C696420496E737472756302
:106BA40074696F6E206279746500434F4D4D5F4286
:106BB40041445F49443A2049442773206E6F74204E
:106BC40073616D6520666F7220696E73747275638C
:106BD40074696F6E20616E642073746174757320C0
:106BE4007061636B65747300434F4D4D5F5258572A
:106BF400414954494E473A204E6F77207265636588
:106C04006976696E6720737461747573207061634B
:106C14006B65742100434F4D4D5F525854494D45A7
:106C24004F55543A205468657265206973206E6F1D
:106C340020737461747573207061636B65742100D3
:106C4400434F4D4D5F5258434845434B53554D3A7E
:106C540020496E636F727265637420737461747516
:106C640073207061636B657420636865636B73750F
:106C74006D21004F7574206F662072616E67652008
:106C84006572726F72210A00436865636B73756D78
:106C9400206572726F72210A004F7665726C6F61A3
:106CA40064206572726F72210A00556E6B6E6F7785
:106CB4006E206572726F7220636F6465212057487D
:106CC40041542044494420594F5520444F213F000A
:106CD40044584C2D002050696E67205374617475BC
:106CE400733A2000537563636573732E0054696DA2
:106CF400656F75742E0057616974696E67206F6ED5
:106D04002062757320746F20636C6561722E2E2E61
:106D1400200042757320636C65617265640A436C7C
:106D2400656172696E67207061636B65742E2E2EC7
:106D34002000436C65617265640A53657474696EFE
:106D440067206E6577207061636B65742049442CFD
:106D5400204C656E2C202620496E73742E2E2E2016
:106D640000446F6E650A50696E67696E672E2E2E39
:106D74002000436C65617265642E0A0A000A496E3C
:106D8400697469616C697A696E672044796E616DB2
:106D94006978656C732E2E2E2000556E61626C65C9
:106DA40020746F20496E697469616C697A65204446
:106DB400584C73000A4261747465727920566F6C82
:106DC400746167653A2000652D31205B566F6C74E1
:106DD400735D0A000A7E7E7E7E7E7E7E7E7E7E7E61
:106DE4007E7E7E7E7E7E7E7E7E7E7E7E7E7E7E7EBF
:106DF4007E7E7E7E7E7E7E7E7E7E7E7E7E0A0042DD
:106E040061747465727920566F6C74616765204390
:106E14007269746963616C00436865636B696E676A
:106E24002044796E616D6978656C732E2E2E0A008C
:106E340044584C2000504153530A004641494C0ADF
:106E4400004552524F520A00446F6E6520636865D4
:106E5400636B696E672044796E616D6978656C73E4
:106E64002E0A000A496E697469616C697A65642E38
:046E74000A00000010
:106E78000010014000200000000C0140002000002C
:106E8800000C014000400000000C014000800000A0
:106E98000010014000400000001001400080000088
:106EA800000C014000100000001001400008000024
:106EB80000100140000400000008014000800000AC
:106EC8000008014000400000000C014008000000DC
:106ED80000100140100000000008014001000000FF
:106EE8000008014002000000000801400400000002
:106EF80000080140080000000010014040000000A8
:106F08000010014080000000001001400001000056
:106F180000100140000200000008014000010000CC
:106F28000008014000080000000C014000010000BA
:106F3800000C0140000200000200000000E1000017
:046F480040420F00B4
:00000001FF
